{
  "_format": "hh-sol-artifact-1",
  "contractName": "EtherBingo",
  "sourceName": "contracts/EtherBingo.sol",
  "abi": [
    {
      "inputs": [],
      "stateMutability": "nonpayable",
      "type": "constructor"
    },
    {
      "anonymous": false,
      "inputs": [
        {
          "indexed": true,
          "internalType": "address",
          "name": "previousOwner",
          "type": "address"
        },
        {
          "indexed": true,
          "internalType": "address",
          "name": "newOwner",
          "type": "address"
        }
      ],
      "name": "OwnershipTransferred",
      "type": "event"
    },
    {
      "anonymous": false,
      "inputs": [
        {
          "indexed": true,
          "internalType": "address",
          "name": "user",
          "type": "address"
        },
        {
          "indexed": true,
          "internalType": "uint256",
          "name": "balance",
          "type": "uint256"
        },
        {
          "indexed": false,
          "internalType": "string",
          "name": "message",
          "type": "string"
        }
      ],
      "name": "Withdraw",
      "type": "event"
    },
    {
      "inputs": [
        {
          "internalType": "address",
          "name": "_newOwner",
          "type": "address"
        },
        {
          "internalType": "uint32",
          "name": "_stock",
          "type": "uint32"
        }
      ],
      "name": "addOwner",
      "outputs": [],
      "stateMutability": "nonpayable",
      "type": "function"
    },
    {
      "inputs": [
        {
          "internalType": "uint32",
          "name": "_user_id",
          "type": "uint32"
        },
        {
          "internalType": "uint32",
          "name": "_coins",
          "type": "uint32"
        }
      ],
      "name": "buyCoins",
      "outputs": [],
      "stateMutability": "payable",
      "type": "function"
    },
    {
      "inputs": [
        {
          "internalType": "uint32",
          "name": "_user_id",
          "type": "uint32"
        },
        {
          "internalType": "uint32",
          "name": "_room_id",
          "type": "uint32"
        },
        {
          "internalType": "uint64",
          "name": "_from_date",
          "type": "uint64"
        },
        {
          "internalType": "uint64",
          "name": "_to_date",
          "type": "uint64"
        }
      ],
      "name": "checkRoomOwnership",
      "outputs": [
        {
          "internalType": "bool",
          "name": "",
          "type": "bool"
        }
      ],
      "stateMutability": "view",
      "type": "function"
    },
    {
      "inputs": [
        {
          "internalType": "uint32",
          "name": "_user_id",
          "type": "uint32"
        }
      ],
      "name": "depositFullMoney",
      "outputs": [],
      "stateMutability": "payable",
      "type": "function"
    },
    {
      "inputs": [
        {
          "internalType": "uint32",
          "name": "_user_id",
          "type": "uint32"
        }
      ],
      "name": "depositMoney",
      "outputs": [],
      "stateMutability": "payable",
      "type": "function"
    },
    {
      "inputs": [],
      "name": "getBalance",
      "outputs": [
        {
          "internalType": "uint256",
          "name": "",
          "type": "uint256"
        }
      ],
      "stateMutability": "view",
      "type": "function"
    },
    {
      "inputs": [],
      "name": "owner",
      "outputs": [
        {
          "internalType": "address",
          "name": "",
          "type": "address"
        }
      ],
      "stateMutability": "view",
      "type": "function"
    },
    {
      "inputs": [
        {
          "internalType": "uint32",
          "name": "_user_id",
          "type": "uint32"
        },
        {
          "internalType": "uint32",
          "name": "_room_id",
          "type": "uint32"
        },
        {
          "internalType": "uint256",
          "name": "_amount",
          "type": "uint256"
        },
        {
          "internalType": "uint64",
          "name": "_from_date",
          "type": "uint64"
        },
        {
          "internalType": "uint64",
          "name": "_to_date",
          "type": "uint64"
        }
      ],
      "name": "payForOwnership",
      "outputs": [],
      "stateMutability": "payable",
      "type": "function"
    },
    {
      "inputs": [
        {
          "internalType": "uint32",
          "name": "_user_id",
          "type": "uint32"
        }
      ],
      "name": "payVerifyFee",
      "outputs": [],
      "stateMutability": "payable",
      "type": "function"
    },
    {
      "inputs": [
        {
          "internalType": "address",
          "name": "_ownerToRemove",
          "type": "address"
        }
      ],
      "name": "removeOwner",
      "outputs": [],
      "stateMutability": "nonpayable",
      "type": "function"
    },
    {
      "inputs": [
        {
          "internalType": "uint32",
          "name": "_user_id",
          "type": "uint32"
        },
        {
          "internalType": "uint256",
          "name": "_balance",
          "type": "uint256"
        }
      ],
      "name": "removeUserEther",
      "outputs": [],
      "stateMutability": "nonpayable",
      "type": "function"
    },
    {
      "inputs": [],
      "name": "renounceOwnership",
      "outputs": [],
      "stateMutability": "nonpayable",
      "type": "function"
    },
    {
      "inputs": [
        {
          "internalType": "uint32",
          "name": "_user_id",
          "type": "uint32"
        },
        {
          "internalType": "uint256",
          "name": "_balance",
          "type": "uint256"
        }
      ],
      "name": "sendUserEther",
      "outputs": [],
      "stateMutability": "nonpayable",
      "type": "function"
    },
    {
      "inputs": [
        {
          "internalType": "uint32",
          "name": "_user_id",
          "type": "uint32"
        }
      ],
      "name": "setMainWallet",
      "outputs": [],
      "stateMutability": "nonpayable",
      "type": "function"
    },
    {
      "inputs": [
        {
          "internalType": "address",
          "name": "_to",
          "type": "address"
        }
      ],
      "name": "setOwner",
      "outputs": [],
      "stateMutability": "nonpayable",
      "type": "function"
    },
    {
      "inputs": [
        {
          "internalType": "address",
          "name": "newOwner",
          "type": "address"
        }
      ],
      "name": "transferOwnership",
      "outputs": [],
      "stateMutability": "nonpayable",
      "type": "function"
    },
    {
      "inputs": [
        {
          "internalType": "uint32",
          "name": "_user_id",
          "type": "uint32"
        }
      ],
      "name": "viewUserBalance",
      "outputs": [
        {
          "internalType": "uint256",
          "name": "",
          "type": "uint256"
        }
      ],
      "stateMutability": "view",
      "type": "function"
    },
    {
      "inputs": [
        {
          "internalType": "uint32",
          "name": "_user_id",
          "type": "uint32"
        }
      ],
      "name": "viewUserMainWallet",
      "outputs": [
        {
          "internalType": "address",
          "name": "",
          "type": "address"
        }
      ],
      "stateMutability": "view",
      "type": "function"
    },
    {
      "inputs": [
        {
          "internalType": "uint32",
          "name": "_user_id",
          "type": "uint32"
        }
      ],
      "name": "viewUserTotalCoins",
      "outputs": [
        {
          "internalType": "uint32",
          "name": "",
          "type": "uint32"
        }
      ],
      "stateMutability": "view",
      "type": "function"
    },
    {
      "inputs": [
        {
          "internalType": "uint32",
          "name": "_user_id",
          "type": "uint32"
        },
        {
          "internalType": "uint256",
          "name": "_balance",
          "type": "uint256"
        }
      ],
      "name": "withDrawMoney",
      "outputs": [],
      "stateMutability": "payable",
      "type": "function"
    },
    {
      "inputs": [
        {
          "internalType": "uint256",
          "name": "_balance",
          "type": "uint256"
        }
      ],
      "name": "withDrawMoneyOwner",
      "outputs": [],
      "stateMutability": "payable",
      "type": "function"
    },
    {
      "inputs": [
        {
          "internalType": "uint256",
          "name": "_balance",
          "type": "uint256"
        }
      ],
      "name": "withdrawMoneyToOwners",
      "outputs": [],
      "stateMutability": "payable",
      "type": "function"
    }
  ],
  "bytecode": "0x608060405266038d7ea4c6800060085534801561001b57600080fd5b506100253361006c565b600680546001810182556000919091527ff652222313e28459528d920b65115c16c04f3efc82aaedc97be59f3f377c0d3f0180546001600160a01b031916331790556100bc565b600080546001600160a01b038381166001600160a01b0319831681178455604051919092169283917f8be0079c531659141344cd1fd0a4f28419497f9722a3daafe3b4186f6b6457e09190a35050565b611bf9806100cb6000396000f3fe6080604052600436106101355760003560e01c8063926158ee116100ab578063d0b77a031161006f578063d0b77a0314610300578063db84cd3714610320578063e954b7f014610333578063ee7cc61c14610353578063f2fde38b14610373578063fde03e861461039357600080fd5b8063926158ee14610294578063999abfdc146102a7578063b422594c146102ba578063b80e2de0146102da578063c528ead6146102ed57600080fd5b806341ebb72d116100fd57806341ebb72d146101ca57806362400d09146101ea578063715018a61461020a5780637bc0aea11461021f5780638da5cb5b146102325780638db958db1461026457600080fd5b806312065fe01461013a57806313af403514610162578063173825d914610184578063231ceceb146101a457806336964d6d146101b7575b600080fd5b34801561014657600080fd5b5061014f6103c8565b6040519081526020015b60405180910390f35b34801561016e57600080fd5b5061018261017d3660046118ae565b61041e565b005b34801561019057600080fd5b5061018261019f3660046118ae565b610471565b6101826101b236600461195c565b61068b565b6101826101c5366004611901565b610731565b3480156101d657600080fd5b5061014f6101e5366004611919565b610910565b3480156101f657600080fd5b506101826102053660046118cf565b610992565b34801561021657600080fd5b50610182610a7b565b61018261022d366004611977565b610ab1565b34801561023e57600080fd5b506000546001600160a01b03165b6040516001600160a01b039091168152602001610159565b34801561027057600080fd5b5061028461027f3660046119d4565b610d0a565b6040519015158152602001610159565b6101826102a2366004611919565b610ec2565b6101826102b5366004611901565b610f32565b3480156102c657600080fd5b506101826102d5366004611933565b610fd2565b6101826102e8366004611933565b6110a8565b6101826102fb366004611919565b61133c565b34801561030c57600080fd5b5061024c61031b366004611919565b61143b565b61018261032e366004611919565b61151b565b34801561033f57600080fd5b5061018261034e366004611933565b6115c0565b34801561035f57600080fd5b5061018261036e366004611919565b611661565b34801561037f57600080fd5b5061018261038e3660046118ae565b61170f565b34801561039f57600080fd5b506103b36103ae366004611919565b6117a7565b60405163ffffffff9091168152602001610159565b600080546001600160a01b031633146103fc5760405162461bcd60e51b81526004016103f390611abe565b60405180910390fd5b336104195760405162461bcd60e51b81526004016103f390611a27565b504790565b6000546001600160a01b031633146104485760405162461bcd60e51b81526004016103f390611abe565b336104655760405162461bcd60e51b81526004016103f390611a27565b61046e8161170f565b50565b6000546001600160a01b0316331461049b5760405162461bcd60e51b81526004016103f390611abe565b6001600160a01b0381166104e85760405162461bcd60e51b81526020600482015260146024820152730746865206f776e65722063616e277420626520360641b60448201526064016103f3565b60001960005b60065463ffffffff8216101561056457826001600160a01b031660068263ffffffff168154811061052f57634e487b7160e01b600052603260045260246000fd5b6000918252602090912001546001600160a01b0316141561055257809150610564565b8061055c81611b89565b9150506104ee565b508060030b60001914156105aa5760405162461bcd60e51b815260206004820152600d60248201526c34b73b30b634b21037bbb732b960991b60448201526064016103f3565b600680546105ba90600190611b72565b815481106105d857634e487b7160e01b600052603260045260246000fd5b600091825260209091200154600680546001600160a01b039092169163ffffffff841690811061061857634e487b7160e01b600052603260045260246000fd5b9060005260206000200160006101000a8154816001600160a01b0302191690836001600160a01b03160217905550600680548061066557634e487b7160e01b600052603160045260246000fd5b600082815260209020810160001990810180546001600160a01b03191690550190555050565b8063ffffffff1660085461069f9190611b53565b34146106e65760405162461bcd60e51b815260206004820152601660248201527511195c1bdcda5d081a5cc81b9bdd0818dbdc9c9958dd60521b60448201526064016103f3565b63ffffffff80831660009081526002602052604081208054849391929161070f91859116611b0b565b92506101000a81548163ffffffff021916908363ffffffff1602179055505050565b6000546001600160a01b0316331461075b5760405162461bcd60e51b81526004016103f390611abe565b336107785760405162461bcd60e51b81526004016103f390611a27565b804710156107985760405162461bcd60e51b81526004016103f390611a90565b60005b60065463ffffffff821610156108965760068163ffffffff16815481106107d257634e487b7160e01b600052603260045260246000fd5b6000918252602082200154600680546001600160a01b03909216926108fc92600a926007929163ffffffff881690811061081c57634e487b7160e01b600052603260045260246000fd5b60009182526020808320909101546001600160a01b031683528201929092526040019020546108519063ffffffff1686611b53565b61085b9190611b33565b6040518115909202916000818181858888f19350505050158015610883573d6000803e3d6000fd5b508061088e81611b89565b91505061079b565b50806108aa6000546001600160a01b031690565b6001600160a01b03167f485f1bb6524c663555797e00171a10f341656e59b02d6b557a0a38ba7d5d97516040516109059060208082526010908201526f5769746864726177207375636365737360801b604082015260600190565b60405180910390a350565b600080546001600160a01b0316331480610947575063ffffffff82166000908152600160205260409020546001600160a01b031633145b6109635760405162461bcd60e51b81526004016103f390611a68565b5063ffffffff166000908152600160209081526040808320546001600160a01b03168352600390915290205490565b6000546001600160a01b031633146109bc5760405162461bcd60e51b81526004016103f390611abe565b6001600160a01b038216610a095760405162461bcd60e51b815260206004820152601460248201527306e6577206f776e65722063616e277420626520360641b60448201526064016103f3565b60068054600181019091557ff652222313e28459528d920b65115c16c04f3efc82aaedc97be59f3f377c0d3f0180546001600160a01b0319166001600160a01b03939093169283179055600091825260076020526040909120805463ffffffff191663ffffffff909216919091179055565b6000546001600160a01b03163314610aa55760405162461bcd60e51b81526004016103f390611abe565b610aaf6000611816565b565b823414610af95760405162461bcd60e51b815260206004820152601660248201527514185e5b595b9d081a5cc81b9bdd0818dbdc9c9958dd60521b60448201526064016103f3565b60005b63ffffffff8087166000908152600460205260409020549082161015610c645763ffffffff86811660009081526004602052604090208054828816928416908110610b5757634e487b7160e01b600052603260045260246000fd5b60009182526020909120015463ffffffff161415610c525763ffffffff8087166000908152600460205260409020805485928416908110610ba857634e487b7160e01b600052603260045260246000fd5b60009182526020808320909101805467ffffffffffffffff94909416640100000000026bffffffffffffffff00000000199094169390931790925563ffffffff8089168252600490925260409020805484928416908110610c1957634e487b7160e01b600052603260045260246000fd5b90600052602060002001600001600c6101000a81548167ffffffffffffffff021916908367ffffffffffffffff16021790555050610d03565b80610c5c81611b89565b915050610afc565b506040805160608101825263ffffffff868116825267ffffffffffffffff85811660208085019182528683168587019081528b8516600090815260048352968720805460018101825590885291909620945194018054915195518316600160601b0267ffffffffffffffff60601b1996909316640100000000026bffffffffffffffffffffffff19909216949093169390931792909217929092161790555b5050505050565b600080546001600160a01b03163314610d355760405162461bcd60e51b81526004016103f390611abe565b33610d525760405162461bcd60e51b81526004016103f390611a27565b60005b63ffffffff8087166000908152600460205260409020549082161015610eb45763ffffffff86811660009081526004602052604090208054828816928416908110610db057634e487b7160e01b600052603260045260246000fd5b60009182526020909120015463ffffffff161415610ea25763ffffffff8087166000908152600460205260409020805467ffffffffffffffff8716928416908110610e0b57634e487b7160e01b600052603260045260246000fd5b600091825260209091200154640100000000900467ffffffffffffffff16148015610e93575063ffffffff8087166000908152600460205260409020805467ffffffffffffffff8616928416908110610e7457634e487b7160e01b600052603260045260246000fd5b600091825260209091200154600160601b900467ffffffffffffffff16145b15610ea2576001915050610eba565b80610eac81611b89565b915050610d55565b50600090505b949350505050565b34662386f26fc1000014610f115760405162461bcd60e51b81526020600482015260166024820152751c185e5b595b9d081a5cc81b9bdd0818dbdc9c9958dd60521b60448201526064016103f3565b63ffffffff166000908152600560205260409020805460ff19166001179055565b6000546001600160a01b03163314610f5c5760405162461bcd60e51b81526004016103f390611abe565b33610f795760405162461bcd60e51b81526004016103f390611a27565b80471015610f995760405162461bcd60e51b81526004016103f390611a90565b600080546040516001600160a01b039091169183156108fc02918491818181858888f19350505050158015610896573d6000803e3d6000fd5b6000546001600160a01b03163314610ffc5760405162461bcd60e51b81526004016103f390611abe565b336110195760405162461bcd60e51b81526004016103f390611a27565b63ffffffff82166000908152600160209081526040808320546001600160a01b0316835260039091529020548111156110645760405162461bcd60e51b81526004016103f390611a90565b63ffffffff82166000908152600160209081526040808320546001600160a01b0316835260039091528120805483929061109f908490611b72565b90915550505050565b336110c55760405162461bcd60e51b81526004016103f390611a27565b600047116111155760405162461bcd60e51b815260206004820152601a60248201527f496e73756666696369656e7420746f74616c2062616c616e636500000000000060448201526064016103f3565b63ffffffff82166000908152600160205260409020546001600160a01b031633146111825760405162461bcd60e51b815260206004820152601b60248201527f57616c6c6574206164647265737320697320696e636f7272656374000000000060448201526064016103f3565b63ffffffff82166000908152600160209081526040808320546001600160a01b0316835260039091529020548111156111fd5760405162461bcd60e51b815260206004820152601760248201527f42616c616e636520697320696e73756666696369656e7400000000000000000060448201526064016103f3565b63ffffffff821660009081526005602052604090205460ff1615156001146112675760405162461bcd60e51b815260206004820152601860248201527f5665726966792066656520646f6573206e6f742070616964000000000000000060448201526064016103f3565b3360009081526003602052604081208054839290611286908490611b72565b909155505063ffffffff8216600090815260056020526040808220805460ff1916905551339183156108fc02918491818181858888f193505050501580156112d2573d6000803e3d6000fd5b5080336001600160a01b03167f485f1bb6524c663555797e00171a10f341656e59b02d6b557a0a38ba7d5d97516040516113309060208082526010908201526f5769746864726177207375636365737360801b604082015260600190565b60405180910390a35050565b3461137c5760405162461bcd60e51b815260206004820152601060248201526f076616c75652063616e277420626520360841b60448201526064016103f3565b63ffffffff81166000908152600160205260409020546001600160a01b03166113e15760405162461bcd60e51b81526020600482015260176024820152761b585a5b881dd85b1b195d081b5d5cdd081899481cd95d604a1b60448201526064016103f3565b600a6113ee346009611b53565b6113f89190611b33565b63ffffffff82166000908152600160209081526040808320546001600160a01b03168352600390915281208054909190611433908490611af3565b909155505050565b600080546001600160a01b0316331480611472575063ffffffff82166000908152600160205260409020546001600160a01b031633145b61148e5760405162461bcd60e51b81526004016103f390611a68565b63ffffffff82166000908152600160205260409020546001600160a01b03166114f95760405162461bcd60e51b815260206004820152601b60248201527f75736572206469646e277420736574206d61696e2077616c6c6574000000000060448201526064016103f3565b5063ffffffff166000908152600160205260409020546001600160a01b031690565b3461155b5760405162461bcd60e51b815260206004820152601060248201526f076616c75652063616e277420626520360841b60448201526064016103f3565b63ffffffff81166000908152600160205260409020546001600160a01b031661046e5760405162461bcd60e51b81526020600482015260176024820152761b585a5b881dd85b1b195d081b5d5cdd081899481cd95d604a1b60448201526064016103f3565b6000546001600160a01b031633146115ea5760405162461bcd60e51b81526004016103f390611abe565b336116075760405162461bcd60e51b81526004016103f390611a27565b8047116116265760405162461bcd60e51b81526004016103f390611a90565b63ffffffff82166000908152600160209081526040808320546001600160a01b0316835260039091528120805483929061109f908490611af3565b63ffffffff81166000908152600160205260409020546001600160a01b0316156116d75760405162461bcd60e51b815260206004820152602160248201527f6d61696e2077616c6c657420616c72656164792068617665206265656e2073656044820152601d60fa1b60648201526084016103f3565b63ffffffff16600090815260016020908152604080832080546001600160a01b0319163317905560059091529020805460ff19169055565b6000546001600160a01b031633146117395760405162461bcd60e51b81526004016103f390611abe565b6001600160a01b03811661179e5760405162461bcd60e51b815260206004820152602660248201527f4f776e61626c653a206e6577206f776e657220697320746865207a65726f206160448201526564647265737360d01b60648201526084016103f3565b61046e81611816565b600080546001600160a01b03163314806117de575063ffffffff82166000908152600160205260409020546001600160a01b031633145b6117fa5760405162461bcd60e51b81526004016103f390611a68565b5063ffffffff9081166000908152600260205260409020541690565b600080546001600160a01b038381166001600160a01b0319831681178455604051919092169283917f8be0079c531659141344cd1fd0a4f28419497f9722a3daafe3b4186f6b6457e09190a35050565b80356001600160a01b038116811461187d57600080fd5b919050565b803563ffffffff8116811461187d57600080fd5b803567ffffffffffffffff8116811461187d57600080fd5b6000602082840312156118bf578081fd5b6118c882611866565b9392505050565b600080604083850312156118e1578081fd5b6118ea83611866565b91506118f860208401611882565b90509250929050565b600060208284031215611912578081fd5b5035919050565b60006020828403121561192a578081fd5b6118c882611882565b60008060408385031215611945578182fd5b61194e83611882565b946020939093013593505050565b6000806040838503121561196e578182fd5b6118ea83611882565b600080600080600060a0868803121561198e578081fd5b61199786611882565b94506119a560208701611882565b9350604086013592506119ba60608701611896565b91506119c860808701611896565b90509295509295909350565b600080600080608085870312156119e9578384fd5b6119f285611882565b9350611a0060208601611882565b9250611a0e60408601611896565b9150611a1c60608601611896565b905092959194509250565b60208082526021908201527f61646472657373207a65726f206973206e6f7420612076616c6964206f776e656040820152603960f91b606082015260800190565b6020808252600e908201526d34b73b30b634b21031b0b63632b960911b604082015260600190565b602080825260149082015273496e73756666696369656e742062616c616e636560601b604082015260600190565b6020808252818101527f4f776e61626c653a2063616c6c6572206973206e6f7420746865206f776e6572604082015260600190565b60008219821115611b0657611b06611bad565b500190565b600063ffffffff808316818516808303821115611b2a57611b2a611bad565b01949350505050565b600082611b4e57634e487b7160e01b81526012600452602481fd5b500490565b6000816000190483118215151615611b6d57611b6d611bad565b500290565b600082821015611b8457611b84611bad565b500390565b600063ffffffff80831681811415611ba357611ba3611bad565b6001019392505050565b634e487b7160e01b600052601160045260246000fdfea26469706673582212203c882c40dcae10e2b9ed3da16fa060d0977b5e832bf56dcd501a86885239645364736f6c63430008040033",
  "linkReferences": {},
  "deployedLinkReferences": {}
}