{
  "_format": "hh-sol-artifact-1",
  "contractName": "EtherBingo",
  "sourceName": "contracts/EtherBingo.sol",
  "abi": [
    {
      "inputs": [],
      "stateMutability": "nonpayable",
      "type": "constructor"
    },
    {
      "anonymous": false,
      "inputs": [
        {
          "indexed": true,
          "internalType": "address",
          "name": "previousOwner",
          "type": "address"
        },
        {
          "indexed": true,
          "internalType": "address",
          "name": "newOwner",
          "type": "address"
        }
      ],
      "name": "OwnershipTransferred",
      "type": "event"
    },
    {
      "anonymous": false,
      "inputs": [
        {
          "indexed": true,
          "internalType": "address",
          "name": "user",
          "type": "address"
        },
        {
          "indexed": true,
          "internalType": "uint256",
          "name": "balance",
          "type": "uint256"
        },
        {
          "indexed": false,
          "internalType": "string",
          "name": "message",
          "type": "string"
        }
      ],
      "name": "Withdraw",
      "type": "event"
    },
    {
      "inputs": [
        {
          "internalType": "uint32",
          "name": "_user_id",
          "type": "uint32"
        },
        {
          "internalType": "uint32",
          "name": "_coins",
          "type": "uint32"
        }
      ],
      "name": "buyCoins",
      "outputs": [],
      "stateMutability": "payable",
      "type": "function"
    },
    {
      "inputs": [
        {
          "internalType": "uint32",
          "name": "_user_id",
          "type": "uint32"
        }
      ],
      "name": "depositMoney",
      "outputs": [],
      "stateMutability": "payable",
      "type": "function"
    },
    {
      "inputs": [],
      "name": "getBalance",
      "outputs": [
        {
          "internalType": "uint256",
          "name": "",
          "type": "uint256"
        }
      ],
      "stateMutability": "view",
      "type": "function"
    },
    {
      "inputs": [],
      "name": "owner",
      "outputs": [
        {
          "internalType": "address",
          "name": "",
          "type": "address"
        }
      ],
      "stateMutability": "view",
      "type": "function"
    },
    {
      "inputs": [],
      "name": "renounceOwnership",
      "outputs": [],
      "stateMutability": "nonpayable",
      "type": "function"
    },
    {
      "inputs": [
        {
          "internalType": "uint32",
          "name": "_user_id",
          "type": "uint32"
        },
        {
          "internalType": "uint256",
          "name": "_balance",
          "type": "uint256"
        }
      ],
      "name": "sendUserEther",
      "outputs": [],
      "stateMutability": "nonpayable",
      "type": "function"
    },
    {
      "inputs": [
        {
          "internalType": "uint32",
          "name": "_user_id",
          "type": "uint32"
        }
      ],
      "name": "setMainWallet",
      "outputs": [],
      "stateMutability": "nonpayable",
      "type": "function"
    },
    {
      "inputs": [
        {
          "internalType": "address",
          "name": "_to",
          "type": "address"
        }
      ],
      "name": "setOwner",
      "outputs": [],
      "stateMutability": "nonpayable",
      "type": "function"
    },
    {
      "inputs": [
        {
          "internalType": "address",
          "name": "newOwner",
          "type": "address"
        }
      ],
      "name": "transferOwnership",
      "outputs": [],
      "stateMutability": "nonpayable",
      "type": "function"
    },
    {
      "inputs": [
        {
          "internalType": "uint32",
          "name": "_user_id",
          "type": "uint32"
        }
      ],
      "name": "viewUserBalance",
      "outputs": [
        {
          "internalType": "uint256",
          "name": "",
          "type": "uint256"
        }
      ],
      "stateMutability": "view",
      "type": "function"
    },
    {
      "inputs": [
        {
          "internalType": "uint32",
          "name": "_user_id",
          "type": "uint32"
        }
      ],
      "name": "viewUserMainWallet",
      "outputs": [
        {
          "internalType": "address",
          "name": "",
          "type": "address"
        }
      ],
      "stateMutability": "view",
      "type": "function"
    },
    {
      "inputs": [
        {
          "internalType": "uint32",
          "name": "_user_id",
          "type": "uint32"
        }
      ],
      "name": "viewUserTotalCoins",
      "outputs": [
        {
          "internalType": "uint32",
          "name": "",
          "type": "uint32"
        }
      ],
      "stateMutability": "view",
      "type": "function"
    },
    {
      "inputs": [
        {
          "internalType": "uint32",
          "name": "_user_id",
          "type": "uint32"
        },
        {
          "internalType": "uint256",
          "name": "_balance",
          "type": "uint256"
        }
      ],
      "name": "withDrawMoney",
      "outputs": [],
      "stateMutability": "payable",
      "type": "function"
    },
    {
      "inputs": [
        {
          "internalType": "uint256",
          "name": "_balance",
          "type": "uint256"
        }
      ],
      "name": "withDrawMoneyOwner",
      "outputs": [],
      "stateMutability": "payable",
      "type": "function"
    }
  ],
  "bytecode": "0x608060405266038d7ea4c6800060045534801561001b57600080fd5b5061003861002d61003d60201b60201c565b61004560201b60201c565b610109565b600033905090565b60008060009054906101000a900473ffffffffffffffffffffffffffffffffffffffff169050816000806101000a81548173ffffffffffffffffffffffffffffffffffffffff021916908373ffffffffffffffffffffffffffffffffffffffff1602179055508173ffffffffffffffffffffffffffffffffffffffff168173ffffffffffffffffffffffffffffffffffffffff167f8be0079c531659141344cd1fd0a4f28419497f9722a3daafe3b4186f6b6457e060405160405180910390a35050565b611f9b806101186000396000f3fe6080604052600436106100dd5760003560e01c8063b80e2de01161007f578063e954b7f011610059578063e954b7f014610262578063ee7cc61c1461028b578063f2fde38b146102b4578063fde03e86146102dd576100dd565b8063b80e2de0146101ed578063c528ead614610209578063d0b77a0314610225576100dd565b806341ebb72d116100bb57806341ebb72d14610152578063715018a61461018f5780638da5cb5b146101a6578063999abfdc146101d1576100dd565b806312065fe0146100e257806313af40351461010d578063231ceceb14610136575b600080fd5b3480156100ee57600080fd5b506100f761031a565b6040516101049190611a30565b60405180910390f35b34801561011957600080fd5b50610134600480360381019061012f919061154b565b61040e565b005b610150600480360381019061014b9190611602565b610506565b005b34801561015e57600080fd5b506101796004803603810190610174919061159d565b6105bb565b6040516101869190611a30565b60405180910390f35b34801561019b57600080fd5b506101a461072d565b005b3480156101b257600080fd5b506101bb6107b5565b6040516101c89190611855565b60405180910390f35b6101eb60048036038101906101e69190611574565b6107de565b005b610207600480360381019061020291906115c6565b6109b2565b005b610223600480360381019061021e919061159d565b610c82565b005b34801561023157600080fd5b5061024c6004803603810190610247919061159d565b610e25565b6040516102599190611855565b60405180910390f35b34801561026e57600080fd5b50610289600480360381019061028491906115c6565b610fca565b005b34801561029757600080fd5b506102b260048036038101906102ad919061159d565b611191565b005b3480156102c057600080fd5b506102db60048036038101906102d6919061154b565b6112a0565b005b3480156102e957600080fd5b5061030460048036038101906102ff919061159d565b611398565b6040516103119190611a4b565b60405180910390f35b6000610324611440565b73ffffffffffffffffffffffffffffffffffffffff166103426107b5565b73ffffffffffffffffffffffffffffffffffffffff1614610398576040517f08c379a000000000000000000000000000000000000000000000000000000000815260040161038f90611990565b60405180910390fd5b600073ffffffffffffffffffffffffffffffffffffffff163373ffffffffffffffffffffffffffffffffffffffff161415610408576040517f08c379a00000000000000000000000000000000000000000000000000000000081526004016103ff906118b0565b60405180910390fd5b47905090565b610416611440565b73ffffffffffffffffffffffffffffffffffffffff166104346107b5565b73ffffffffffffffffffffffffffffffffffffffff161461048a576040517f08c379a000000000000000000000000000000000000000000000000000000000815260040161048190611990565b60405180910390fd5b600073ffffffffffffffffffffffffffffffffffffffff163373ffffffffffffffffffffffffffffffffffffffff1614156104fa576040517f08c379a00000000000000000000000000000000000000000000000000000000081526004016104f1906118b0565b60405180910390fd5b610503816112a0565b50565b8063ffffffff1660045461051a9190611b38565b341461055b576040517f08c379a000000000000000000000000000000000000000000000000000000000815260040161055290611970565b60405180910390fd5b80600260008463ffffffff1663ffffffff16815260200190815260200160002060008282829054906101000a900463ffffffff166105999190611acd565b92506101000a81548163ffffffff021916908363ffffffff1602179055505050565b60006105c56107b5565b73ffffffffffffffffffffffffffffffffffffffff163373ffffffffffffffffffffffffffffffffffffffff1614806106685750600160008363ffffffff1663ffffffff16815260200190815260200160002060009054906101000a900473ffffffffffffffffffffffffffffffffffffffff1673ffffffffffffffffffffffffffffffffffffffff163373ffffffffffffffffffffffffffffffffffffffff16145b6106a7576040517f08c379a000000000000000000000000000000000000000000000000000000000815260040161069e906118d0565b60405180910390fd5b60036000600160008563ffffffff1663ffffffff16815260200190815260200160002060009054906101000a900473ffffffffffffffffffffffffffffffffffffffff1673ffffffffffffffffffffffffffffffffffffffff1673ffffffffffffffffffffffffffffffffffffffff168152602001908152602001600020549050919050565b610735611440565b73ffffffffffffffffffffffffffffffffffffffff166107536107b5565b73ffffffffffffffffffffffffffffffffffffffff16146107a9576040517f08c379a00000000000000000000000000000000000000000000000000000000081526004016107a090611990565b60405180910390fd5b6107b36000611448565b565b60008060009054906101000a900473ffffffffffffffffffffffffffffffffffffffff16905090565b6107e6611440565b73ffffffffffffffffffffffffffffffffffffffff166108046107b5565b73ffffffffffffffffffffffffffffffffffffffff161461085a576040517f08c379a000000000000000000000000000000000000000000000000000000000815260040161085190611990565b60405180910390fd5b600073ffffffffffffffffffffffffffffffffffffffff163373ffffffffffffffffffffffffffffffffffffffff1614156108ca576040517f08c379a00000000000000000000000000000000000000000000000000000000081526004016108c1906118b0565b60405180910390fd5b8047101561090d576040517f08c379a000000000000000000000000000000000000000000000000000000000815260040161090490611910565b60405180910390fd5b6109156107b5565b73ffffffffffffffffffffffffffffffffffffffff166108fc829081150290604051600060405180830381858888f1935050505015801561095a573d6000803e3d6000fd5b50806109646107b5565b73ffffffffffffffffffffffffffffffffffffffff167f485f1bb6524c663555797e00171a10f341656e59b02d6b557a0a38ba7d5d97516040516109a790611870565b60405180910390a350565b600073ffffffffffffffffffffffffffffffffffffffff163373ffffffffffffffffffffffffffffffffffffffff161415610a22576040517f08c379a0000000000000000000000000000000000000000000000000000000008152600401610a19906118b0565b60405180910390fd5b60004711610a65576040517f08c379a0000000000000000000000000000000000000000000000000000000008152600401610a5c90611910565b60405180910390fd5b600360003373ffffffffffffffffffffffffffffffffffffffff1673ffffffffffffffffffffffffffffffffffffffff16815260200190815260200160002054811115610ae7576040517f08c379a0000000000000000000000000000000000000000000000000000000008152600401610ade906118f0565b60405180910390fd5b3373ffffffffffffffffffffffffffffffffffffffff16600160008463ffffffff1663ffffffff16815260200190815260200160002060009054906101000a900473ffffffffffffffffffffffffffffffffffffffff1673ffffffffffffffffffffffffffffffffffffffff1614610b94576040517f08c379a0000000000000000000000000000000000000000000000000000000008152600401610b8b90611950565b60405180910390fd5b80600360003373ffffffffffffffffffffffffffffffffffffffff1673ffffffffffffffffffffffffffffffffffffffff1681526020019081526020016000206000828254610be39190611b92565b925050819055503373ffffffffffffffffffffffffffffffffffffffff166108fc829081150290604051600060405180830381858888f19350505050158015610c30573d6000803e3d6000fd5b50803373ffffffffffffffffffffffffffffffffffffffff167f485f1bb6524c663555797e00171a10f341656e59b02d6b557a0a38ba7d5d9751604051610c7690611870565b60405180910390a35050565b6000341415610cc6576040517f08c379a0000000000000000000000000000000000000000000000000000000008152600401610cbd90611a10565b60405180910390fd5b600073ffffffffffffffffffffffffffffffffffffffff16600160008363ffffffff1663ffffffff16815260200190815260200160002060009054906101000a900473ffffffffffffffffffffffffffffffffffffffff1673ffffffffffffffffffffffffffffffffffffffff161415610d75576040517f08c379a0000000000000000000000000000000000000000000000000000000008152600401610d6c906119d0565b60405180910390fd5b600a600934610d849190611b38565b610d8e9190611b07565b60036000600160008563ffffffff1663ffffffff16815260200190815260200160002060009054906101000a900473ffffffffffffffffffffffffffffffffffffffff1673ffffffffffffffffffffffffffffffffffffffff1673ffffffffffffffffffffffffffffffffffffffff1681526020019081526020016000206000828254610e1b9190611a77565b9250508190555050565b6000600160008363ffffffff1663ffffffff16815260200190815260200160002060009054906101000a900473ffffffffffffffffffffffffffffffffffffffff1673ffffffffffffffffffffffffffffffffffffffff163373ffffffffffffffffffffffffffffffffffffffff1614610ed4576040517f08c379a0000000000000000000000000000000000000000000000000000000008152600401610ecb906119b0565b60405180910390fd5b600073ffffffffffffffffffffffffffffffffffffffff16600160008463ffffffff1663ffffffff16815260200190815260200160002060009054906101000a900473ffffffffffffffffffffffffffffffffffffffff1673ffffffffffffffffffffffffffffffffffffffff161415610f83576040517f08c379a0000000000000000000000000000000000000000000000000000000008152600401610f7a90611930565b60405180910390fd5b600160008363ffffffff1663ffffffff16815260200190815260200160002060009054906101000a900473ffffffffffffffffffffffffffffffffffffffff169050919050565b610fd2611440565b73ffffffffffffffffffffffffffffffffffffffff16610ff06107b5565b73ffffffffffffffffffffffffffffffffffffffff1614611046576040517f08c379a000000000000000000000000000000000000000000000000000000000815260040161103d90611990565b60405180910390fd5b600073ffffffffffffffffffffffffffffffffffffffff163373ffffffffffffffffffffffffffffffffffffffff1614156110b6576040517f08c379a00000000000000000000000000000000000000000000000000000000081526004016110ad906118b0565b60405180910390fd5b8047116110f8576040517f08c379a00000000000000000000000000000000000000000000000000000000081526004016110ef90611910565b60405180910390fd5b8060036000600160008663ffffffff1663ffffffff16815260200190815260200160002060009054906101000a900473ffffffffffffffffffffffffffffffffffffffff1673ffffffffffffffffffffffffffffffffffffffff1673ffffffffffffffffffffffffffffffffffffffff16815260200190815260200160002060008282546111869190611a77565b925050819055505050565b600073ffffffffffffffffffffffffffffffffffffffff16600160008363ffffffff1663ffffffff16815260200190815260200160002060009054906101000a900473ffffffffffffffffffffffffffffffffffffffff1673ffffffffffffffffffffffffffffffffffffffff161461123f576040517f08c379a0000000000000000000000000000000000000000000000000000000008152600401611236906119f0565b60405180910390fd5b33600160008363ffffffff1663ffffffff16815260200190815260200160002060006101000a81548173ffffffffffffffffffffffffffffffffffffffff021916908373ffffffffffffffffffffffffffffffffffffffff16021790555050565b6112a8611440565b73ffffffffffffffffffffffffffffffffffffffff166112c66107b5565b73ffffffffffffffffffffffffffffffffffffffff161461131c576040517f08c379a000000000000000000000000000000000000000000000000000000000815260040161131390611990565b60405180910390fd5b600073ffffffffffffffffffffffffffffffffffffffff168173ffffffffffffffffffffffffffffffffffffffff16141561138c576040517f08c379a000000000000000000000000000000000000000000000000000000000815260040161138390611890565b60405180910390fd5b61139581611448565b50565b60008073ffffffffffffffffffffffffffffffffffffffff163373ffffffffffffffffffffffffffffffffffffffff161415611409576040517f08c379a0000000000000000000000000000000000000000000000000000000008152600401611400906118b0565b60405180910390fd5b600260008363ffffffff1663ffffffff16815260200190815260200160002060009054906101000a900463ffffffff169050919050565b600033905090565b60008060009054906101000a900473ffffffffffffffffffffffffffffffffffffffff169050816000806101000a81548173ffffffffffffffffffffffffffffffffffffffff021916908373ffffffffffffffffffffffffffffffffffffffff1602179055508173ffffffffffffffffffffffffffffffffffffffff168173ffffffffffffffffffffffffffffffffffffffff167f8be0079c531659141344cd1fd0a4f28419497f9722a3daafe3b4186f6b6457e060405160405180910390a35050565b60008135905061151b81611f20565b92915050565b60008135905061153081611f37565b92915050565b60008135905061154581611f4e565b92915050565b60006020828403121561155d57600080fd5b600061156b8482850161150c565b91505092915050565b60006020828403121561158657600080fd5b600061159484828501611521565b91505092915050565b6000602082840312156115af57600080fd5b60006115bd84828501611536565b91505092915050565b600080604083850312156115d957600080fd5b60006115e785828601611536565b92505060206115f885828601611521565b9150509250929050565b6000806040838503121561161557600080fd5b600061162385828601611536565b925050602061163485828601611536565b9150509250929050565b61164781611bc6565b82525050565b600061165a601083611a66565b915061166582611c70565b602082019050919050565b600061167d602683611a66565b915061168882611c99565b604082019050919050565b60006116a0602183611a66565b91506116ab82611ce8565b604082019050919050565b60006116c3600e83611a66565b91506116ce82611d37565b602082019050919050565b60006116e6601783611a66565b91506116f182611d60565b602082019050919050565b6000611709601483611a66565b915061171482611d89565b602082019050919050565b600061172c601b83611a66565b915061173782611db2565b602082019050919050565b600061174f601b83611a66565b915061175a82611ddb565b602082019050919050565b6000611772601683611a66565b915061177d82611e04565b602082019050919050565b6000611795602083611a66565b91506117a082611e2d565b602082019050919050565b60006117b8601c83611a66565b91506117c382611e56565b602082019050919050565b60006117db601783611a66565b91506117e682611e7f565b602082019050919050565b60006117fe602183611a66565b915061180982611ea8565b604082019050919050565b6000611821601083611a66565b915061182c82611ef7565b602082019050919050565b61184081611bf8565b82525050565b61184f81611c02565b82525050565b600060208201905061186a600083018461163e565b92915050565b600060208201905081810360008301526118898161164d565b9050919050565b600060208201905081810360008301526118a981611670565b9050919050565b600060208201905081810360008301526118c981611693565b9050919050565b600060208201905081810360008301526118e9816116b6565b9050919050565b60006020820190508181036000830152611909816116d9565b9050919050565b60006020820190508181036000830152611929816116fc565b9050919050565b600060208201905081810360008301526119498161171f565b9050919050565b6000602082019050818103600083015261196981611742565b9050919050565b6000602082019050818103600083015261198981611765565b9050919050565b600060208201905081810360008301526119a981611788565b9050919050565b600060208201905081810360008301526119c9816117ab565b9050919050565b600060208201905081810360008301526119e9816117ce565b9050919050565b60006020820190508181036000830152611a09816117f1565b9050919050565b60006020820190508181036000830152611a2981611814565b9050919050565b6000602082019050611a456000830184611837565b92915050565b6000602082019050611a606000830184611846565b92915050565b600082825260208201905092915050565b6000611a8282611bf8565b9150611a8d83611bf8565b9250827fffffffffffffffffffffffffffffffffffffffffffffffffffffffffffffffff03821115611ac257611ac1611c12565b5b828201905092915050565b6000611ad882611c02565b9150611ae383611c02565b92508263ffffffff03821115611afc57611afb611c12565b5b828201905092915050565b6000611b1282611bf8565b9150611b1d83611bf8565b925082611b2d57611b2c611c41565b5b828204905092915050565b6000611b4382611bf8565b9150611b4e83611bf8565b9250817fffffffffffffffffffffffffffffffffffffffffffffffffffffffffffffffff0483118215151615611b8757611b86611c12565b5b828202905092915050565b6000611b9d82611bf8565b9150611ba883611bf8565b925082821015611bbb57611bba611c12565b5b828203905092915050565b6000611bd182611bd8565b9050919050565b600073ffffffffffffffffffffffffffffffffffffffff82169050919050565b6000819050919050565b600063ffffffff82169050919050565b7f4e487b7100000000000000000000000000000000000000000000000000000000600052601160045260246000fd5b7f4e487b7100000000000000000000000000000000000000000000000000000000600052601260045260246000fd5b7f5769746864726177207375636365737300000000000000000000000000000000600082015250565b7f4f776e61626c653a206e6577206f776e657220697320746865207a65726f206160008201527f6464726573730000000000000000000000000000000000000000000000000000602082015250565b7f61646472657373207a65726f206973206e6f7420612076616c6964206f776e6560008201527f7200000000000000000000000000000000000000000000000000000000000000602082015250565b7f696e76616c69642063616c6c6572000000000000000000000000000000000000600082015250565b7f42616c616e636520697320696e73756666696369656e74000000000000000000600082015250565b7f496e73756666696369656e742062616c616e6365000000000000000000000000600082015250565b7f75736572206469646e277420736574206d61696e2077616c6c65740000000000600082015250565b7f57616c6c6574206164647265737320697320696e636f72726563740000000000600082015250565b7f4465706f736974206973206e6f7420636f727265637400000000000000000000600082015250565b7f4f776e61626c653a2063616c6c6572206973206e6f7420746865206f776e6572600082015250565b7f6f6e6c7920757365722063616e20736565206869732077616c6c657400000000600082015250565b7f6d61696e2077616c6c6574206d75737420626520736574000000000000000000600082015250565b7f6d61696e2077616c6c657420616c72656164792068617665206265656e20736560008201527f7400000000000000000000000000000000000000000000000000000000000000602082015250565b7f76616c75652063616e2774206265203000000000000000000000000000000000600082015250565b611f2981611bc6565b8114611f3457600080fd5b50565b611f4081611bf8565b8114611f4b57600080fd5b50565b611f5781611c02565b8114611f6257600080fd5b5056fea2646970667358221220594e46d183ce075fe892556cd78be640680c4513a7524a96d393c2cb0b00f2c664736f6c63430008040033",
  "linkReferences": {},
  "deployedLinkReferences": {}
}