{
  "_format": "hh-sol-artifact-1",
  "contractName": "EtherBingo",
  "sourceName": "contracts/EtherBingo.sol",
  "abi": [
    {
      "inputs": [],
      "stateMutability": "nonpayable",
      "type": "constructor"
    },
    {
      "anonymous": false,
      "inputs": [
        {
          "indexed": true,
          "internalType": "address",
          "name": "previousOwner",
          "type": "address"
        },
        {
          "indexed": true,
          "internalType": "address",
          "name": "newOwner",
          "type": "address"
        }
      ],
      "name": "OwnershipTransferred",
      "type": "event"
    },
    {
      "anonymous": false,
      "inputs": [
        {
          "indexed": true,
          "internalType": "address",
          "name": "user",
          "type": "address"
        },
        {
          "indexed": true,
          "internalType": "uint256",
          "name": "balance",
          "type": "uint256"
        },
        {
          "indexed": false,
          "internalType": "string",
          "name": "message",
          "type": "string"
        }
      ],
      "name": "Withdraw",
      "type": "event"
    },
    {
      "inputs": [
        {
          "internalType": "uint32",
          "name": "_user_id",
          "type": "uint32"
        },
        {
          "internalType": "uint32",
          "name": "_coins",
          "type": "uint32"
        }
      ],
      "name": "buyCoins",
      "outputs": [],
      "stateMutability": "payable",
      "type": "function"
    },
    {
      "inputs": [
        {
          "internalType": "uint32",
          "name": "_user_id",
          "type": "uint32"
        }
      ],
      "name": "depositMoney",
      "outputs": [],
      "stateMutability": "payable",
      "type": "function"
    },
    {
      "inputs": [],
      "name": "getBalance",
      "outputs": [
        {
          "internalType": "uint256",
          "name": "",
          "type": "uint256"
        }
      ],
      "stateMutability": "view",
      "type": "function"
    },
    {
      "inputs": [],
      "name": "owner",
      "outputs": [
        {
          "internalType": "address",
          "name": "",
          "type": "address"
        }
      ],
      "stateMutability": "view",
      "type": "function"
    },
    {
      "inputs": [
        {
          "internalType": "uint32",
          "name": "_user_id",
          "type": "uint32"
        },
        {
          "internalType": "uint256",
          "name": "_balance",
          "type": "uint256"
        }
      ],
      "name": "removeUserEther",
      "outputs": [],
      "stateMutability": "nonpayable",
      "type": "function"
    },
    {
      "inputs": [],
      "name": "renounceOwnership",
      "outputs": [],
      "stateMutability": "nonpayable",
      "type": "function"
    },
    {
      "inputs": [
        {
          "internalType": "uint32",
          "name": "_user_id",
          "type": "uint32"
        },
        {
          "internalType": "uint256",
          "name": "_balance",
          "type": "uint256"
        }
      ],
      "name": "sendUserEther",
      "outputs": [],
      "stateMutability": "nonpayable",
      "type": "function"
    },
    {
      "inputs": [
        {
          "internalType": "uint32",
          "name": "_user_id",
          "type": "uint32"
        }
      ],
      "name": "setMainWallet",
      "outputs": [],
      "stateMutability": "nonpayable",
      "type": "function"
    },
    {
      "inputs": [
        {
          "internalType": "address",
          "name": "_to",
          "type": "address"
        }
      ],
      "name": "setOwner",
      "outputs": [],
      "stateMutability": "nonpayable",
      "type": "function"
    },
    {
      "inputs": [
        {
          "internalType": "address",
          "name": "newOwner",
          "type": "address"
        }
      ],
      "name": "transferOwnership",
      "outputs": [],
      "stateMutability": "nonpayable",
      "type": "function"
    },
    {
      "inputs": [
        {
          "internalType": "uint32",
          "name": "_user_id",
          "type": "uint32"
        }
      ],
      "name": "viewUserBalance",
      "outputs": [
        {
          "internalType": "uint256",
          "name": "",
          "type": "uint256"
        }
      ],
      "stateMutability": "view",
      "type": "function"
    },
    {
      "inputs": [
        {
          "internalType": "uint32",
          "name": "_user_id",
          "type": "uint32"
        }
      ],
      "name": "viewUserMainWallet",
      "outputs": [
        {
          "internalType": "address",
          "name": "",
          "type": "address"
        }
      ],
      "stateMutability": "view",
      "type": "function"
    },
    {
      "inputs": [
        {
          "internalType": "uint32",
          "name": "_user_id",
          "type": "uint32"
        }
      ],
      "name": "viewUserTotalCoins",
      "outputs": [
        {
          "internalType": "uint32",
          "name": "",
          "type": "uint32"
        }
      ],
      "stateMutability": "view",
      "type": "function"
    },
    {
      "inputs": [
        {
          "internalType": "uint32",
          "name": "_user_id",
          "type": "uint32"
        },
        {
          "internalType": "uint256",
          "name": "_balance",
          "type": "uint256"
        }
      ],
      "name": "withDrawMoney",
      "outputs": [],
      "stateMutability": "payable",
      "type": "function"
    },
    {
      "inputs": [
        {
          "internalType": "uint256",
          "name": "_balance",
          "type": "uint256"
        }
      ],
      "name": "withDrawMoneyOwner",
      "outputs": [],
      "stateMutability": "payable",
      "type": "function"
    }
  ],
  "bytecode": "0x608060405266038d7ea4c6800060045534801561001b57600080fd5b506100253361002a565b61007a565b600080546001600160a01b038381166001600160a01b0319831681178455604051919092169283917f8be0079c531659141344cd1fd0a4f28419497f9722a3daafe3b4186f6b6457e09190a35050565b610f75806100896000396000f3fe6080604052600436106100e85760003560e01c8063b422594c1161008a578063e954b7f011610059578063e954b7f01461022a578063ee7cc61c1461024a578063f2fde38b1461026a578063fde03e861461028a57600080fd5b8063b422594c146101c4578063b80e2de0146101e4578063c528ead6146101f7578063d0b77a031461020a57600080fd5b806341ebb72d116100c657806341ebb72d1461014a578063715018a61461016a5780638da5cb5b1461017f578063999abfdc146101b157600080fd5b806312065fe0146100ed57806313af403514610115578063231ceceb14610137575b600080fd5b3480156100f957600080fd5b506101026102bf565b6040519081526020015b60405180910390f35b34801561012157600080fd5b50610135610130366004610d0c565b610315565b005b610135610145366004610d95565b610368565b34801561015657600080fd5b50610102610165366004610d52565b61040e565b34801561017657600080fd5b50610135610490565b34801561018b57600080fd5b506000546001600160a01b03165b6040516001600160a01b03909116815260200161010c565b6101356101bf366004610d3a565b6104c6565b3480156101d057600080fd5b506101356101df366004610d6c565b6105e0565b6101356101f2366004610d6c565b6106b6565b610135610205366004610d52565b61087a565b34801561021657600080fd5b50610199610225366004610d52565b61097f565b34801561023657600080fd5b50610135610245366004610d6c565b610a5f565b34801561025657600080fd5b50610135610265366004610d52565b610b00565b34801561027657600080fd5b50610135610285366004610d0c565b610b9c565b34801561029657600080fd5b506102aa6102a5366004610d52565b610c34565b60405163ffffffff909116815260200161010c565b600080546001600160a01b031633146102f35760405162461bcd60e51b81526004016102ea90610e5e565b60405180910390fd5b336103105760405162461bcd60e51b81526004016102ea90610dc7565b504790565b6000546001600160a01b0316331461033f5760405162461bcd60e51b81526004016102ea90610e5e565b3361035c5760405162461bcd60e51b81526004016102ea90610dc7565b61036581610b9c565b50565b8063ffffffff1660045461037c9190610ef3565b34146103c35760405162461bcd60e51b815260206004820152601660248201527511195c1bdcda5d081a5cc81b9bdd0818dbdc9c9958dd60521b60448201526064016102ea565b63ffffffff8083166000908152600260205260408120805484939192916103ec91859116610eab565b92506101000a81548163ffffffff021916908363ffffffff1602179055505050565b600080546001600160a01b0316331480610445575063ffffffff82166000908152600160205260409020546001600160a01b031633145b6104615760405162461bcd60e51b81526004016102ea90610e08565b5063ffffffff166000908152600160209081526040808320546001600160a01b03168352600390915290205490565b6000546001600160a01b031633146104ba5760405162461bcd60e51b81526004016102ea90610e5e565b6104c46000610ca3565b565b6000546001600160a01b031633146104f05760405162461bcd60e51b81526004016102ea90610e5e565b3361050d5760405162461bcd60e51b81526004016102ea90610dc7565b8047101561052d5760405162461bcd60e51b81526004016102ea90610e30565b600080546040516001600160a01b039091169183156108fc02918491818181858888f19350505050158015610566573d6000803e3d6000fd5b508061057a6000546001600160a01b031690565b6001600160a01b03167f485f1bb6524c663555797e00171a10f341656e59b02d6b557a0a38ba7d5d97516040516105d59060208082526010908201526f5769746864726177207375636365737360801b604082015260600190565b60405180910390a350565b6000546001600160a01b0316331461060a5760405162461bcd60e51b81526004016102ea90610e5e565b336106275760405162461bcd60e51b81526004016102ea90610dc7565b63ffffffff82166000908152600160209081526040808320546001600160a01b0316835260039091529020548111156106725760405162461bcd60e51b81526004016102ea90610e30565b63ffffffff82166000908152600160209081526040808320546001600160a01b031683526003909152812080548392906106ad908490610f12565b90915550505050565b336106d35760405162461bcd60e51b81526004016102ea90610dc7565b600047116106f35760405162461bcd60e51b81526004016102ea90610e30565b336000908152600360205260409020548111156107525760405162461bcd60e51b815260206004820152601760248201527f42616c616e636520697320696e73756666696369656e7400000000000000000060448201526064016102ea565b63ffffffff82166000908152600160205260409020546001600160a01b031633146107bf5760405162461bcd60e51b815260206004820152601b60248201527f57616c6c6574206164647265737320697320696e636f7272656374000000000060448201526064016102ea565b33600090815260036020526040812080548392906107de908490610f12565b9091555050604051339082156108fc029083906000818181858888f19350505050158015610810573d6000803e3d6000fd5b5080336001600160a01b03167f485f1bb6524c663555797e00171a10f341656e59b02d6b557a0a38ba7d5d975160405161086e9060208082526010908201526f5769746864726177207375636365737360801b604082015260600190565b60405180910390a35050565b346108ba5760405162461bcd60e51b815260206004820152601060248201526f076616c75652063616e277420626520360841b60448201526064016102ea565b63ffffffff81166000908152600160205260409020546001600160a01b03166109255760405162461bcd60e51b815260206004820152601760248201527f6d61696e2077616c6c6574206d7573742062652073657400000000000000000060448201526064016102ea565b6014610932346013610ef3565b61093c9190610ed3565b63ffffffff82166000908152600160209081526040808320546001600160a01b03168352600390915281208054909190610977908490610e93565b909155505050565b600080546001600160a01b03163314806109b6575063ffffffff82166000908152600160205260409020546001600160a01b031633145b6109d25760405162461bcd60e51b81526004016102ea90610e08565b63ffffffff82166000908152600160205260409020546001600160a01b0316610a3d5760405162461bcd60e51b815260206004820152601b60248201527f75736572206469646e277420736574206d61696e2077616c6c6574000000000060448201526064016102ea565b5063ffffffff166000908152600160205260409020546001600160a01b031690565b6000546001600160a01b03163314610a895760405162461bcd60e51b81526004016102ea90610e5e565b33610aa65760405162461bcd60e51b81526004016102ea90610dc7565b804711610ac55760405162461bcd60e51b81526004016102ea90610e30565b63ffffffff82166000908152600160209081526040808320546001600160a01b031683526003909152812080548392906106ad908490610e93565b63ffffffff81166000908152600160205260409020546001600160a01b031615610b765760405162461bcd60e51b815260206004820152602160248201527f6d61696e2077616c6c657420616c72656164792068617665206265656e2073656044820152601d60fa1b60648201526084016102ea565b63ffffffff16600090815260016020526040902080546001600160a01b03191633179055565b6000546001600160a01b03163314610bc65760405162461bcd60e51b81526004016102ea90610e5e565b6001600160a01b038116610c2b5760405162461bcd60e51b815260206004820152602660248201527f4f776e61626c653a206e6577206f776e657220697320746865207a65726f206160448201526564647265737360d01b60648201526084016102ea565b61036581610ca3565b600080546001600160a01b0316331480610c6b575063ffffffff82166000908152600160205260409020546001600160a01b031633145b610c875760405162461bcd60e51b81526004016102ea90610e08565b5063ffffffff9081166000908152600260205260409020541690565b600080546001600160a01b038381166001600160a01b0319831681178455604051919092169283917f8be0079c531659141344cd1fd0a4f28419497f9722a3daafe3b4186f6b6457e09190a35050565b803563ffffffff81168114610d0757600080fd5b919050565b600060208284031215610d1d578081fd5b81356001600160a01b0381168114610d33578182fd5b9392505050565b600060208284031215610d4b578081fd5b5035919050565b600060208284031215610d63578081fd5b610d3382610cf3565b60008060408385031215610d7e578081fd5b610d8783610cf3565b946020939093013593505050565b60008060408385031215610da7578182fd5b610db083610cf3565b9150610dbe60208401610cf3565b90509250929050565b60208082526021908201527f61646472657373207a65726f206973206e6f7420612076616c6964206f776e656040820152603960f91b606082015260800190565b6020808252600e908201526d34b73b30b634b21031b0b63632b960911b604082015260600190565b602080825260149082015273496e73756666696369656e742062616c616e636560601b604082015260600190565b6020808252818101527f4f776e61626c653a2063616c6c6572206973206e6f7420746865206f776e6572604082015260600190565b60008219821115610ea657610ea6610f29565b500190565b600063ffffffff808316818516808303821115610eca57610eca610f29565b01949350505050565b600082610eee57634e487b7160e01b81526012600452602481fd5b500490565b6000816000190483118215151615610f0d57610f0d610f29565b500290565b600082821015610f2457610f24610f29565b500390565b634e487b7160e01b600052601160045260246000fdfea264697066735822122007919564b625813861400d5a856c07c84546882c8070d1fac5d001778d16a76f64736f6c63430008040033",
  "linkReferences": {},
  "deployedLinkReferences": {}
}