{
  "_format": "hh-sol-artifact-1",
  "contractName": "EtherBingo",
  "sourceName": "contracts/EtherBingo.sol",
  "abi": [
    {
      "inputs": [],
      "stateMutability": "nonpayable",
      "type": "constructor"
    },
    {
      "anonymous": false,
      "inputs": [
        {
          "indexed": true,
          "internalType": "address",
          "name": "previousOwner",
          "type": "address"
        },
        {
          "indexed": true,
          "internalType": "address",
          "name": "newOwner",
          "type": "address"
        }
      ],
      "name": "OwnershipTransferred",
      "type": "event"
    },
    {
      "anonymous": false,
      "inputs": [
        {
          "indexed": true,
          "internalType": "address",
          "name": "user",
          "type": "address"
        },
        {
          "indexed": true,
          "internalType": "uint256",
          "name": "balance",
          "type": "uint256"
        },
        {
          "indexed": false,
          "internalType": "string",
          "name": "message",
          "type": "string"
        }
      ],
      "name": "Withdraw",
      "type": "event"
    },
    {
      "inputs": [
        {
          "internalType": "uint32",
          "name": "_user_id",
          "type": "uint32"
        },
        {
          "internalType": "uint32",
          "name": "_coins",
          "type": "uint32"
        }
      ],
      "name": "buyCoins",
      "outputs": [],
      "stateMutability": "payable",
      "type": "function"
    },
    {
      "inputs": [
        {
          "internalType": "uint32",
          "name": "_user_id",
          "type": "uint32"
        }
      ],
      "name": "depositMoney",
      "outputs": [],
      "stateMutability": "payable",
      "type": "function"
    },
    {
      "inputs": [],
      "name": "getBalance",
      "outputs": [
        {
          "internalType": "uint256",
          "name": "",
          "type": "uint256"
        }
      ],
      "stateMutability": "view",
      "type": "function"
    },
    {
      "inputs": [],
      "name": "owner",
      "outputs": [
        {
          "internalType": "address",
          "name": "",
          "type": "address"
        }
      ],
      "stateMutability": "view",
      "type": "function"
    },
    {
      "inputs": [
        {
          "internalType": "uint32",
          "name": "_user_id",
          "type": "uint32"
        },
        {
          "internalType": "uint32",
          "name": "_room_id",
          "type": "uint32"
        },
        {
          "internalType": "uint256",
          "name": "_amount",
          "type": "uint256"
        }
      ],
      "name": "payForOwnership",
      "outputs": [],
      "stateMutability": "payable",
      "type": "function"
    },
    {
      "inputs": [
        {
          "internalType": "uint32",
          "name": "_user_id",
          "type": "uint32"
        },
        {
          "internalType": "uint256",
          "name": "_balance",
          "type": "uint256"
        }
      ],
      "name": "removeUserEther",
      "outputs": [],
      "stateMutability": "nonpayable",
      "type": "function"
    },
    {
      "inputs": [],
      "name": "renounceOwnership",
      "outputs": [],
      "stateMutability": "nonpayable",
      "type": "function"
    },
    {
      "inputs": [
        {
          "internalType": "uint32",
          "name": "_user_id",
          "type": "uint32"
        },
        {
          "internalType": "uint256",
          "name": "_balance",
          "type": "uint256"
        }
      ],
      "name": "sendUserEther",
      "outputs": [],
      "stateMutability": "nonpayable",
      "type": "function"
    },
    {
      "inputs": [
        {
          "internalType": "uint32",
          "name": "_user_id",
          "type": "uint32"
        }
      ],
      "name": "setMainWallet",
      "outputs": [],
      "stateMutability": "nonpayable",
      "type": "function"
    },
    {
      "inputs": [
        {
          "internalType": "address",
          "name": "_to",
          "type": "address"
        }
      ],
      "name": "setOwner",
      "outputs": [],
      "stateMutability": "nonpayable",
      "type": "function"
    },
    {
      "inputs": [
        {
          "internalType": "address",
          "name": "newOwner",
          "type": "address"
        }
      ],
      "name": "transferOwnership",
      "outputs": [],
      "stateMutability": "nonpayable",
      "type": "function"
    },
    {
      "inputs": [
        {
          "internalType": "uint32",
          "name": "_user_id",
          "type": "uint32"
        }
      ],
      "name": "viewUserBalance",
      "outputs": [
        {
          "internalType": "uint256",
          "name": "",
          "type": "uint256"
        }
      ],
      "stateMutability": "view",
      "type": "function"
    },
    {
      "inputs": [
        {
          "internalType": "uint32",
          "name": "_user_id",
          "type": "uint32"
        }
      ],
      "name": "viewUserMainWallet",
      "outputs": [
        {
          "internalType": "address",
          "name": "",
          "type": "address"
        }
      ],
      "stateMutability": "view",
      "type": "function"
    },
    {
      "inputs": [
        {
          "internalType": "uint32",
          "name": "_user_id",
          "type": "uint32"
        }
      ],
      "name": "viewUserTotalCoins",
      "outputs": [
        {
          "internalType": "uint32",
          "name": "",
          "type": "uint32"
        }
      ],
      "stateMutability": "view",
      "type": "function"
    },
    {
      "inputs": [
        {
          "internalType": "uint32",
          "name": "_user_id",
          "type": "uint32"
        },
        {
          "internalType": "uint256",
          "name": "_balance",
          "type": "uint256"
        }
      ],
      "name": "withDrawMoney",
      "outputs": [],
      "stateMutability": "payable",
      "type": "function"
    },
    {
      "inputs": [
        {
          "internalType": "uint256",
          "name": "_balance",
          "type": "uint256"
        }
      ],
      "name": "withDrawMoneyOwner",
      "outputs": [],
      "stateMutability": "payable",
      "type": "function"
    }
  ],
  "bytecode": "0x608060405266038d7ea4c6800060055534801561001b57600080fd5b506100253361002a565b61007a565b600080546001600160a01b038381166001600160a01b0319831681178455604051919092169283917f8be0079c531659141344cd1fd0a4f28419497f9722a3daafe3b4186f6b6457e09190a35050565b611071806100896000396000f3fe6080604052600436106100f35760003560e01c8063b422594c1161008a578063e954b7f011610059578063e954b7f014610248578063ee7cc61c14610268578063f2fde38b14610288578063fde03e86146102a857600080fd5b8063b422594c146101e2578063b80e2de014610202578063c528ead614610215578063d0b77a031461022857600080fd5b806341ebb72d116100c657806341ebb72d14610168578063715018a6146101885780638da5cb5b1461019d578063999abfdc146101cf57600080fd5b806312065fe0146100f857806313af403514610120578063231ceceb14610142578063372cc2ff14610155575b600080fd5b34801561010457600080fd5b5061010d6102dd565b6040519081526020015b60405180910390f35b34801561012c57600080fd5b5061014061013b366004610dcd565b610333565b005b610140610150366004610e56565b610386565b610140610163366004610e88565b61042c565b34801561017457600080fd5b5061010d610183366004610e13565b61049f565b34801561019457600080fd5b50610140610521565b3480156101a957600080fd5b506000546001600160a01b03165b6040516001600160a01b039091168152602001610117565b6101406101dd366004610dfb565b610557565b3480156101ee57600080fd5b506101406101fd366004610e2d565b610671565b610140610210366004610e2d565b610747565b610140610223366004610e13565b61093b565b34801561023457600080fd5b506101b7610243366004610e13565b610a40565b34801561025457600080fd5b50610140610263366004610e2d565b610b20565b34801561027457600080fd5b50610140610283366004610e13565b610bc1565b34801561029457600080fd5b506101406102a3366004610dcd565b610c5d565b3480156102b457600080fd5b506102c86102c3366004610e13565b610cf5565b60405163ffffffff9091168152602001610117565b600080546001600160a01b031633146103115760405162461bcd60e51b815260040161030890610f5a565b60405180910390fd5b3361032e5760405162461bcd60e51b815260040161030890610ec3565b504790565b6000546001600160a01b0316331461035d5760405162461bcd60e51b815260040161030890610f5a565b3361037a5760405162461bcd60e51b815260040161030890610ec3565b61038381610c5d565b50565b8063ffffffff1660055461039a9190610fef565b34146103e15760405162461bcd60e51b815260206004820152601660248201527511195c1bdcda5d081a5cc81b9bdd0818dbdc9c9958dd60521b6044820152606401610308565b63ffffffff80831660009081526002602052604081208054849391929161040a91859116610fa7565b92506101000a81548163ffffffff021916908363ffffffff1602179055505050565b8034146104745760405162461bcd60e51b815260206004820152601660248201527514185e5b595b9d081a5cc81b9bdd0818dbdc9c9958dd60521b6044820152606401610308565b5063ffffffff908116600090815260046020526040902080549190921663ffffffff19909116179055565b600080546001600160a01b03163314806104d6575063ffffffff82166000908152600160205260409020546001600160a01b031633145b6104f25760405162461bcd60e51b815260040161030890610f04565b5063ffffffff166000908152600160209081526040808320546001600160a01b03168352600390915290205490565b6000546001600160a01b0316331461054b5760405162461bcd60e51b815260040161030890610f5a565b6105556000610d64565b565b6000546001600160a01b031633146105815760405162461bcd60e51b815260040161030890610f5a565b3361059e5760405162461bcd60e51b815260040161030890610ec3565b804710156105be5760405162461bcd60e51b815260040161030890610f2c565b600080546040516001600160a01b039091169183156108fc02918491818181858888f193505050501580156105f7573d6000803e3d6000fd5b508061060b6000546001600160a01b031690565b6001600160a01b03167f485f1bb6524c663555797e00171a10f341656e59b02d6b557a0a38ba7d5d97516040516106669060208082526010908201526f5769746864726177207375636365737360801b604082015260600190565b60405180910390a350565b6000546001600160a01b0316331461069b5760405162461bcd60e51b815260040161030890610f5a565b336106b85760405162461bcd60e51b815260040161030890610ec3565b63ffffffff82166000908152600160209081526040808320546001600160a01b0316835260039091529020548111156107035760405162461bcd60e51b815260040161030890610f2c565b63ffffffff82166000908152600160209081526040808320546001600160a01b0316835260039091528120805483929061073e90849061100e565b90915550505050565b336107645760405162461bcd60e51b815260040161030890610ec3565b600047116107b45760405162461bcd60e51b815260206004820152601a60248201527f496e73756666696369656e7420746f74616c2062616c616e63650000000000006044820152606401610308565b336000908152600360205260409020548111156108135760405162461bcd60e51b815260206004820152601760248201527f42616c616e636520697320696e73756666696369656e740000000000000000006044820152606401610308565b63ffffffff82166000908152600160205260409020546001600160a01b031633146108805760405162461bcd60e51b815260206004820152601b60248201527f57616c6c6574206164647265737320697320696e636f727265637400000000006044820152606401610308565b336000908152600360205260408120805483929061089f90849061100e565b9091555050604051339082156108fc029083906000818181858888f193505050501580156108d1573d6000803e3d6000fd5b5080336001600160a01b03167f485f1bb6524c663555797e00171a10f341656e59b02d6b557a0a38ba7d5d975160405161092f9060208082526010908201526f5769746864726177207375636365737360801b604082015260600190565b60405180910390a35050565b3461097b5760405162461bcd60e51b815260206004820152601060248201526f076616c75652063616e277420626520360841b6044820152606401610308565b63ffffffff81166000908152600160205260409020546001600160a01b03166109e65760405162461bcd60e51b815260206004820152601760248201527f6d61696e2077616c6c6574206d757374206265207365740000000000000000006044820152606401610308565b600a6109f3346009610fef565b6109fd9190610fcf565b63ffffffff82166000908152600160209081526040808320546001600160a01b03168352600390915281208054909190610a38908490610f8f565b909155505050565b600080546001600160a01b0316331480610a77575063ffffffff82166000908152600160205260409020546001600160a01b031633145b610a935760405162461bcd60e51b815260040161030890610f04565b63ffffffff82166000908152600160205260409020546001600160a01b0316610afe5760405162461bcd60e51b815260206004820152601b60248201527f75736572206469646e277420736574206d61696e2077616c6c657400000000006044820152606401610308565b5063ffffffff166000908152600160205260409020546001600160a01b031690565b6000546001600160a01b03163314610b4a5760405162461bcd60e51b815260040161030890610f5a565b33610b675760405162461bcd60e51b815260040161030890610ec3565b804711610b865760405162461bcd60e51b815260040161030890610f2c565b63ffffffff82166000908152600160209081526040808320546001600160a01b0316835260039091528120805483929061073e908490610f8f565b63ffffffff81166000908152600160205260409020546001600160a01b031615610c375760405162461bcd60e51b815260206004820152602160248201527f6d61696e2077616c6c657420616c72656164792068617665206265656e2073656044820152601d60fa1b6064820152608401610308565b63ffffffff16600090815260016020526040902080546001600160a01b03191633179055565b6000546001600160a01b03163314610c875760405162461bcd60e51b815260040161030890610f5a565b6001600160a01b038116610cec5760405162461bcd60e51b815260206004820152602660248201527f4f776e61626c653a206e6577206f776e657220697320746865207a65726f206160448201526564647265737360d01b6064820152608401610308565b61038381610d64565b600080546001600160a01b0316331480610d2c575063ffffffff82166000908152600160205260409020546001600160a01b031633145b610d485760405162461bcd60e51b815260040161030890610f04565b5063ffffffff9081166000908152600260205260409020541690565b600080546001600160a01b038381166001600160a01b0319831681178455604051919092169283917f8be0079c531659141344cd1fd0a4f28419497f9722a3daafe3b4186f6b6457e09190a35050565b803563ffffffff81168114610dc857600080fd5b919050565b600060208284031215610dde578081fd5b81356001600160a01b0381168114610df4578182fd5b9392505050565b600060208284031215610e0c578081fd5b5035919050565b600060208284031215610e24578081fd5b610df482610db4565b60008060408385031215610e3f578081fd5b610e4883610db4565b946020939093013593505050565b60008060408385031215610e68578182fd5b610e7183610db4565b9150610e7f60208401610db4565b90509250929050565b600080600060608486031215610e9c578081fd5b610ea584610db4565b9250610eb360208501610db4565b9150604084013590509250925092565b60208082526021908201527f61646472657373207a65726f206973206e6f7420612076616c6964206f776e656040820152603960f91b606082015260800190565b6020808252600e908201526d34b73b30b634b21031b0b63632b960911b604082015260600190565b602080825260149082015273496e73756666696369656e742062616c616e636560601b604082015260600190565b6020808252818101527f4f776e61626c653a2063616c6c6572206973206e6f7420746865206f776e6572604082015260600190565b60008219821115610fa257610fa2611025565b500190565b600063ffffffff808316818516808303821115610fc657610fc6611025565b01949350505050565b600082610fea57634e487b7160e01b81526012600452602481fd5b500490565b600081600019048311821515161561100957611009611025565b500290565b60008282101561102057611020611025565b500390565b634e487b7160e01b600052601160045260246000fdfea264697066735822122055af0f08d29991b0d25ad19303eb97a9ec99c47021b7e636d6040481d67f974364736f6c63430008040033",
  "linkReferences": {},
  "deployedLinkReferences": {}
}